{
  "contractName": "SimpleStorage",
  "abi": [
    {
      "inputs": [],
      "stateMutability": "nonpayable",
      "type": "constructor"
    },
    {
      "anonymous": false,
      "inputs": [
        {
          "indexed": true,
          "internalType": "address",
          "name": "owner",
          "type": "address"
        },
        {
          "indexed": true,
          "internalType": "address",
          "name": "approved",
          "type": "address"
        },
        {
          "indexed": true,
          "internalType": "uint256",
          "name": "tokenId",
          "type": "uint256"
        }
      ],
      "name": "Approval",
      "type": "event"
    },
    {
      "anonymous": false,
      "inputs": [
        {
          "indexed": true,
          "internalType": "address",
          "name": "owner",
          "type": "address"
        },
        {
          "indexed": true,
          "internalType": "address",
          "name": "operator",
          "type": "address"
        },
        {
          "indexed": false,
          "internalType": "bool",
          "name": "approved",
          "type": "bool"
        }
      ],
      "name": "ApprovalForAll",
      "type": "event"
    },
    {
      "anonymous": false,
      "inputs": [
        {
          "indexed": false,
          "internalType": "address",
          "name": "account",
          "type": "address"
        }
      ],
      "name": "Paused",
      "type": "event"
    },
    {
      "anonymous": false,
      "inputs": [
        {
          "indexed": true,
          "internalType": "bytes32",
          "name": "role",
          "type": "bytes32"
        },
        {
          "indexed": true,
          "internalType": "bytes32",
          "name": "previousAdminRole",
          "type": "bytes32"
        },
        {
          "indexed": true,
          "internalType": "bytes32",
          "name": "newAdminRole",
          "type": "bytes32"
        }
      ],
      "name": "RoleAdminChanged",
      "type": "event"
    },
    {
      "anonymous": false,
      "inputs": [
        {
          "indexed": true,
          "internalType": "bytes32",
          "name": "role",
          "type": "bytes32"
        },
        {
          "indexed": true,
          "internalType": "address",
          "name": "account",
          "type": "address"
        },
        {
          "indexed": true,
          "internalType": "address",
          "name": "sender",
          "type": "address"
        }
      ],
      "name": "RoleGranted",
      "type": "event"
    },
    {
      "anonymous": false,
      "inputs": [
        {
          "indexed": true,
          "internalType": "bytes32",
          "name": "role",
          "type": "bytes32"
        },
        {
          "indexed": true,
          "internalType": "address",
          "name": "account",
          "type": "address"
        },
        {
          "indexed": true,
          "internalType": "address",
          "name": "sender",
          "type": "address"
        }
      ],
      "name": "RoleRevoked",
      "type": "event"
    },
    {
      "anonymous": false,
      "inputs": [
        {
          "indexed": false,
          "internalType": "bytes32",
          "name": "ifpsHash",
          "type": "bytes32"
        },
        {
          "indexed": false,
          "internalType": "address",
          "name": "ownerAddress",
          "type": "address"
        }
      ],
      "name": "TokenIPFSHash",
      "type": "event"
    },
    {
      "anonymous": false,
      "inputs": [
        {
          "indexed": true,
          "internalType": "address",
          "name": "from",
          "type": "address"
        },
        {
          "indexed": true,
          "internalType": "address",
          "name": "to",
          "type": "address"
        },
        {
          "indexed": true,
          "internalType": "uint256",
          "name": "tokenId",
          "type": "uint256"
        }
      ],
      "name": "Transfer",
      "type": "event"
    },
    {
      "anonymous": false,
      "inputs": [
        {
          "indexed": false,
          "internalType": "address",
          "name": "account",
          "type": "address"
        }
      ],
      "name": "Unpaused",
      "type": "event"
    },
    {
      "inputs": [],
      "name": "DEFAULT_ADMIN_ROLE",
      "outputs": [
        {
          "internalType": "bytes32",
          "name": "",
          "type": "bytes32"
        }
      ],
      "stateMutability": "view",
      "type": "function",
      "constant": true
    },
    {
      "inputs": [],
      "name": "MINTER_ROLE",
      "outputs": [
        {
          "internalType": "bytes32",
          "name": "",
          "type": "bytes32"
        }
      ],
      "stateMutability": "view",
      "type": "function",
      "constant": true
    },
    {
      "inputs": [],
      "name": "PAUSER_ROLE",
      "outputs": [
        {
          "internalType": "bytes32",
          "name": "",
          "type": "bytes32"
        }
      ],
      "stateMutability": "view",
      "type": "function",
      "constant": true
    },
    {
      "inputs": [
        {
          "internalType": "address",
          "name": "to",
          "type": "address"
        },
        {
          "internalType": "uint256",
          "name": "tokenId",
          "type": "uint256"
        }
      ],
      "name": "approve",
      "outputs": [],
      "stateMutability": "nonpayable",
      "type": "function"
    },
    {
      "inputs": [
        {
          "internalType": "address",
          "name": "owner",
          "type": "address"
        }
      ],
      "name": "balanceOf",
      "outputs": [
        {
          "internalType": "uint256",
          "name": "",
          "type": "uint256"
        }
      ],
      "stateMutability": "view",
      "type": "function",
      "constant": true
    },
    {
      "inputs": [
        {
          "internalType": "uint256",
          "name": "tokenId",
          "type": "uint256"
        }
      ],
      "name": "burn",
      "outputs": [],
      "stateMutability": "nonpayable",
      "type": "function"
    },
    {
      "inputs": [
        {
          "internalType": "uint256",
          "name": "tokenId",
          "type": "uint256"
        }
      ],
      "name": "getApproved",
      "outputs": [
        {
          "internalType": "address",
          "name": "",
          "type": "address"
        }
      ],
      "stateMutability": "view",
      "type": "function",
      "constant": true
    },
    {
      "inputs": [
        {
          "internalType": "bytes32",
          "name": "role",
          "type": "bytes32"
        }
      ],
      "name": "getRoleAdmin",
      "outputs": [
        {
          "internalType": "bytes32",
          "name": "",
          "type": "bytes32"
        }
      ],
      "stateMutability": "view",
      "type": "function",
      "constant": true
    },
    {
      "inputs": [
        {
          "internalType": "bytes32",
          "name": "role",
          "type": "bytes32"
        },
        {
          "internalType": "uint256",
          "name": "index",
          "type": "uint256"
        }
      ],
      "name": "getRoleMember",
      "outputs": [
        {
          "internalType": "address",
          "name": "",
          "type": "address"
        }
      ],
      "stateMutability": "view",
      "type": "function",
      "constant": true
    },
    {
      "inputs": [
        {
          "internalType": "bytes32",
          "name": "role",
          "type": "bytes32"
        }
      ],
      "name": "getRoleMemberCount",
      "outputs": [
        {
          "internalType": "uint256",
          "name": "",
          "type": "uint256"
        }
      ],
      "stateMutability": "view",
      "type": "function",
      "constant": true
    },
    {
      "inputs": [
        {
          "internalType": "bytes32",
          "name": "role",
          "type": "bytes32"
        },
        {
          "internalType": "address",
          "name": "account",
          "type": "address"
        }
      ],
      "name": "grantRole",
      "outputs": [],
      "stateMutability": "nonpayable",
      "type": "function"
    },
    {
      "inputs": [
        {
          "internalType": "bytes32",
          "name": "role",
          "type": "bytes32"
        },
        {
          "internalType": "address",
          "name": "account",
          "type": "address"
        }
      ],
      "name": "hasRole",
      "outputs": [
        {
          "internalType": "bool",
          "name": "",
          "type": "bool"
        }
      ],
      "stateMutability": "view",
      "type": "function",
      "constant": true
    },
    {
      "inputs": [
        {
          "internalType": "address",
          "name": "owner",
          "type": "address"
        },
        {
          "internalType": "address",
          "name": "operator",
          "type": "address"
        }
      ],
      "name": "isApprovedForAll",
      "outputs": [
        {
          "internalType": "bool",
          "name": "",
          "type": "bool"
        }
      ],
      "stateMutability": "view",
      "type": "function",
      "constant": true
    },
    {
      "inputs": [
        {
          "internalType": "address",
          "name": "to",
          "type": "address"
        }
      ],
      "name": "mint",
      "outputs": [],
      "stateMutability": "nonpayable",
      "type": "function"
    },
    {
      "inputs": [],
      "name": "name",
      "outputs": [
        {
          "internalType": "string",
          "name": "",
          "type": "string"
        }
      ],
      "stateMutability": "view",
      "type": "function",
      "constant": true
    },
    {
      "inputs": [
        {
          "internalType": "uint256",
          "name": "tokenId",
          "type": "uint256"
        }
      ],
      "name": "ownerOf",
      "outputs": [
        {
          "internalType": "address",
          "name": "",
          "type": "address"
        }
      ],
      "stateMutability": "view",
      "type": "function",
      "constant": true
    },
    {
      "inputs": [],
      "name": "pause",
      "outputs": [],
      "stateMutability": "nonpayable",
      "type": "function"
    },
    {
      "inputs": [],
      "name": "paused",
      "outputs": [
        {
          "internalType": "bool",
          "name": "",
          "type": "bool"
        }
      ],
      "stateMutability": "view",
      "type": "function",
      "constant": true
    },
    {
      "inputs": [
        {
          "internalType": "bytes32",
          "name": "role",
          "type": "bytes32"
        },
        {
          "internalType": "address",
          "name": "account",
          "type": "address"
        }
      ],
      "name": "renounceRole",
      "outputs": [],
      "stateMutability": "nonpayable",
      "type": "function"
    },
    {
      "inputs": [
        {
          "internalType": "bytes32",
          "name": "role",
          "type": "bytes32"
        },
        {
          "internalType": "address",
          "name": "account",
          "type": "address"
        }
      ],
      "name": "revokeRole",
      "outputs": [],
      "stateMutability": "nonpayable",
      "type": "function"
    },
    {
      "inputs": [
        {
          "internalType": "address",
          "name": "from",
          "type": "address"
        },
        {
          "internalType": "address",
          "name": "to",
          "type": "address"
        },
        {
          "internalType": "uint256",
          "name": "tokenId",
          "type": "uint256"
        }
      ],
      "name": "safeTransferFrom",
      "outputs": [],
      "stateMutability": "nonpayable",
      "type": "function"
    },
    {
      "inputs": [
        {
          "internalType": "address",
          "name": "from",
          "type": "address"
        },
        {
          "internalType": "address",
          "name": "to",
          "type": "address"
        },
        {
          "internalType": "uint256",
          "name": "tokenId",
          "type": "uint256"
        },
        {
          "internalType": "bytes",
          "name": "_data",
          "type": "bytes"
        }
      ],
      "name": "safeTransferFrom",
      "outputs": [],
      "stateMutability": "nonpayable",
      "type": "function"
    },
    {
      "inputs": [
        {
          "internalType": "address",
          "name": "operator",
          "type": "address"
        },
        {
          "internalType": "bool",
          "name": "approved",
          "type": "bool"
        }
      ],
      "name": "setApprovalForAll",
      "outputs": [],
      "stateMutability": "nonpayable",
      "type": "function"
    },
    {
      "inputs": [
        {
          "internalType": "bytes4",
          "name": "interfaceId",
          "type": "bytes4"
        }
      ],
      "name": "supportsInterface",
      "outputs": [
        {
          "internalType": "bool",
          "name": "",
          "type": "bool"
        }
      ],
      "stateMutability": "view",
      "type": "function",
      "constant": true
    },
    {
      "inputs": [],
      "name": "symbol",
      "outputs": [
        {
          "internalType": "string",
          "name": "",
          "type": "string"
        }
      ],
      "stateMutability": "view",
      "type": "function",
      "constant": true
    },
    {
      "inputs": [
        {
          "internalType": "uint256",
          "name": "index",
          "type": "uint256"
        }
      ],
      "name": "tokenByIndex",
      "outputs": [
        {
          "internalType": "uint256",
          "name": "",
          "type": "uint256"
        }
      ],
      "stateMutability": "view",
      "type": "function",
      "constant": true
    },
    {
      "inputs": [
        {
          "internalType": "address",
          "name": "owner",
          "type": "address"
        },
        {
          "internalType": "uint256",
          "name": "index",
          "type": "uint256"
        }
      ],
      "name": "tokenOfOwnerByIndex",
      "outputs": [
        {
          "internalType": "uint256",
          "name": "",
          "type": "uint256"
        }
      ],
      "stateMutability": "view",
      "type": "function",
      "constant": true
    },
    {
      "inputs": [
        {
          "internalType": "uint256",
          "name": "tokenId",
          "type": "uint256"
        }
      ],
      "name": "tokenURI",
      "outputs": [
        {
          "internalType": "string",
          "name": "",
          "type": "string"
        }
      ],
      "stateMutability": "view",
      "type": "function",
      "constant": true
    },
    {
      "inputs": [],
      "name": "totalSupply",
      "outputs": [
        {
          "internalType": "uint256",
          "name": "",
          "type": "uint256"
        }
      ],
      "stateMutability": "view",
      "type": "function",
      "constant": true
    },
    {
      "inputs": [
        {
          "internalType": "address",
          "name": "from",
          "type": "address"
        },
        {
          "internalType": "address",
          "name": "to",
          "type": "address"
        },
        {
          "internalType": "uint256",
          "name": "tokenId",
          "type": "uint256"
        }
      ],
      "name": "transferFrom",
      "outputs": [],
      "stateMutability": "nonpayable",
      "type": "function"
    },
    {
      "inputs": [],
      "name": "unpause",
      "outputs": [],
      "stateMutability": "nonpayable",
      "type": "function"
    },
    {
      "inputs": [
        {
          "internalType": "uint256",
          "name": "x",
          "type": "uint256"
        }
      ],
      "name": "set",
      "outputs": [],
      "stateMutability": "nonpayable",
      "type": "function"
    },
    {
      "inputs": [],
      "name": "get",
      "outputs": [
        {
          "internalType": "uint256",
          "name": "",
          "type": "uint256"
        }
      ],
      "stateMutability": "view",
      "type": "function",
      "constant": true
    },
    {
      "inputs": [
        {
          "internalType": "bytes32",
          "name": "ifpsHash",
          "type": "bytes32"
        }
      ],
      "name": "getOwner",
      "outputs": [
        {
          "internalType": "address",
          "name": "",
          "type": "address"
        }
      ],
      "stateMutability": "view",
      "type": "function",
      "constant": true
    },
    {
      "inputs": [
        {
          "internalType": "bytes32",
          "name": "ifpsHash",
          "type": "bytes32"
        }
      ],
      "name": "save",
      "outputs": [],
      "stateMutability": "nonpayable",
      "type": "function"
    }
  ],
  "bytecode": "0x60806040523480156200001157600080fd5b506040518060400160405280600681526020017f43697269746900000000000000000000000000000000000000000000000000008152506040518060400160405280600581526020017f4352542d310000000000000000000000000000000000000000000000000000008152506040518060600160405280603b815260200162004f13603b913982828160029080519060200190620000b292919062000447565b508060039080519060200190620000cb92919062000447565b5050506000600c60006101000a81548160ff02191690831515021790555080600e90805190602001906200010192919062000447565b50620001266000801b6200011a620001b160201b60201c565b620001b960201b60201c565b620001677f9f2df0fed2c77648de5860a4cc508cd0818c85b8b8a1ab4ceeef8d981c8956a66200015b620001b160201b60201c565b620001b960201b60201c565b620001a87f65d7a28e3265b37a6474929f336521b332c1681b933f6cb9f3376673440d862a6200019c620001b160201b60201c565b620001b960201b60201c565b5050506200055c565b600033905090565b620001cb8282620001cf60201b60201c565b5050565b620001e682826200021760201b620013691760201c565b6200021281600160008581526020019081526020016000206200030860201b620014491790919060201c565b505050565b6200022982826200034060201b60201c565b6200030457600160008084815260200190815260200160002060000160008373ffffffffffffffffffffffffffffffffffffffff1673ffffffffffffffffffffffffffffffffffffffff16815260200190815260200160002060006101000a81548160ff021916908315150217905550620002a9620001b160201b60201c565b73ffffffffffffffffffffffffffffffffffffffff168173ffffffffffffffffffffffffffffffffffffffff16837f2f8788117e7eff1d82e926ec794901d17c78024a50270940304540a733656f0d60405160405180910390a45b5050565b600062000338836000018373ffffffffffffffffffffffffffffffffffffffff1660001b620003aa60201b60201c565b905092915050565b600080600084815260200190815260200160002060000160008373ffffffffffffffffffffffffffffffffffffffff1673ffffffffffffffffffffffffffffffffffffffff16815260200190815260200160002060009054906101000a900460ff16905092915050565b6000620003be83836200042460201b60201c565b620004195782600001829080600181540180825580915050600190039060005260206000200160009091909190915055826000018054905083600101600084815260200190815260200160002081905550600190506200041e565b600090505b92915050565b600080836001016000848152602001908152602001600020541415905092915050565b8280546200045590620004f7565b90600052602060002090601f016020900481019282620004795760008555620004c5565b82601f106200049457805160ff1916838001178555620004c5565b82800160010185558215620004c5579182015b82811115620004c4578251825591602001919060010190620004a7565b5b509050620004d49190620004d8565b5090565b5b80821115620004f3576000816000905550600101620004d9565b5090565b600060028204905060018216806200051057607f821691505b602082108114156200052757620005266200052d565b5b50919050565b7f4e487b7100000000000000000000000000000000000000000000000000000000600052602260045260246000fd5b6149a7806200056c6000396000f3fe608060405234801561001057600080fd5b50600436106102115760003560e01c80636352211e11610125578063a22cb465116100ad578063d53913931161007c578063d539139314610622578063d547741f14610640578063deb931a21461065c578063e63ab1e91461068c578063e985e9c5146106aa57610211565b8063a22cb4651461058a578063b88d4fde146105a6578063c87b56dd146105c2578063ca15c873146105f257610211565b80638456cb59116100f45780638456cb59146104e45780639010d07c146104ee57806391d148541461051e57806395d89b411461054e578063a217fddf1461056c57610211565b80636352211e1461044a5780636a6278421461047a5780636d4ce63c1461049657806370a08231146104b457610211565b80632f745c59116101a857806342842e0e1161017757806342842e0e146103a857806342966c68146103c45780634f6ccce7146103e05780635c975abb1461041057806360fe47b11461042e57610211565b80632f745c591461033657806336568abe146103665780633f4ba83a146103825780634053c7971461038c57610211565b806318160ddd116101e457806318160ddd146102b057806323b872dd146102ce578063248a9ca3146102ea5780632f2ff15d1461031a57610211565b806301ffc9a71461021657806306fdde0314610246578063081812fc14610264578063095ea7b314610294575b600080fd5b610230600480360381019061022b9190613575565b6106da565b60405161023d9190614126565b60405180910390f35b61024e6106ec565b60405161025b9190614185565b60405180910390f35b61027e600480360381019061027991906135c7565b61077e565b60405161028b91906140bf565b60405180910390f35b6102ae60048036038101906102a99190613498565b610803565b005b6102b861091b565b6040516102c591906144c7565b60405180910390f35b6102e860048036038101906102e39190613392565b610928565b005b61030460048036038101906102ff91906134d4565b610988565b6040516103119190614141565b60405180910390f35b610334600480360381019061032f91906134fd565b6109a7565b005b610350600480360381019061034b9190613498565b6109d0565b60405161035d91906144c7565b60405180910390f35b610380600480360381019061037b91906134fd565b610a75565b005b61038a610af8565b005b6103a660048036038101906103a191906134d4565b610b72565b005b6103c260048036038101906103bd9190613392565b610c00565b005b6103de60048036038101906103d991906135c7565b610c20565b005b6103fa60048036038101906103f591906135c7565b610c7c565b60405161040791906144c7565b60405180910390f35b610418610d13565b6040516104259190614126565b60405180910390f35b610448600480360381019061044391906135c7565b610d2a565b005b610464600480360381019061045f91906135c7565b610d34565b60405161047191906140bf565b60405180910390f35b610494600480360381019061048f919061332d565b610de6565b005b61049e610e76565b6040516104ab91906144c7565b60405180910390f35b6104ce60048036038101906104c9919061332d565b610e80565b6040516104db91906144c7565b60405180910390f35b6104ec610f38565b005b61050860048036038101906105039190613539565b610fb2565b60405161051591906140bf565b60405180910390f35b610538600480360381019061053391906134fd565b610fe1565b6040516105459190614126565b60405180910390f35b61055661104b565b6040516105639190614185565b60405180910390f35b6105746110dd565b6040516105819190614141565b60405180910390f35b6105a4600480360381019061059f919061345c565b6110e4565b005b6105c060048036038101906105bb91906133e1565b6110fa565b005b6105dc60048036038101906105d791906135c7565b61115c565b6040516105e99190614185565b60405180910390f35b61060c600480360381019061060791906134d4565b611203565b60405161061991906144c7565b60405180910390f35b61062a611227565b6040516106379190614141565b60405180910390f35b61065a600480360381019061065591906134fd565b61124b565b005b610676600480360381019061067191906134d4565b611274565b60405161068391906140bf565b60405180910390f35b6106946112b1565b6040516106a19190614141565b60405180910390f35b6106c460048036038101906106bf9190613356565b6112d5565b6040516106d19190614126565b60405180910390f35b60006106e582611479565b9050919050565b6060600280546106fb90614785565b80601f016020809104026020016040519081016040528092919081815260200182805461072790614785565b80156107745780601f1061074957610100808354040283529160200191610774565b820191906000526020600020905b81548152906001019060200180831161075757829003601f168201915b5050505050905090565b6000610789826114f3565b6107c8576040517f08c379a00000000000000000000000000000000000000000000000000000000081526004016107bf90614387565b60405180910390fd5b6006600083815260200190815260200160002060009054906101000a900473ffffffffffffffffffffffffffffffffffffffff169050919050565b600061080e82610d34565b90508073ffffffffffffffffffffffffffffffffffffffff168373ffffffffffffffffffffffffffffffffffffffff16141561087f576040517f08c379a0000000000000000000000000000000000000000000000000000000008152600401610876906143e7565b60405180910390fd5b8073ffffffffffffffffffffffffffffffffffffffff1661089e61155f565b73ffffffffffffffffffffffffffffffffffffffff1614806108cd57506108cc816108c761155f565b6112d5565b5b61090c576040517f08c379a000000000000000000000000000000000000000000000000000000000815260040161090390614307565b60405180910390fd5b6109168383611567565b505050565b6000600a80549050905090565b61093961093361155f565b82611620565b610978576040517f08c379a000000000000000000000000000000000000000000000000000000000815260040161096f90614407565b60405180910390fd5b6109838383836116fe565b505050565b6000806000838152602001908152602001600020600101549050919050565b6109b082610988565b6109c1816109bc61155f565b61195a565b6109cb83836119f7565b505050565b60006109db83610e80565b8210610a1c576040517f08c379a0000000000000000000000000000000000000000000000000000000008152600401610a1390614207565b60405180910390fd5b600860008473ffffffffffffffffffffffffffffffffffffffff1673ffffffffffffffffffffffffffffffffffffffff168152602001908152602001600020600083815260200190815260200160002054905092915050565b610a7d61155f565b73ffffffffffffffffffffffffffffffffffffffff168173ffffffffffffffffffffffffffffffffffffffff1614610aea576040517f08c379a0000000000000000000000000000000000000000000000000000000008152600401610ae1906144a7565b60405180910390fd5b610af48282611a2b565b5050565b610b297f65d7a28e3265b37a6474929f336521b332c1681b933f6cb9f3376673440d862a610b2461155f565b610fe1565b610b68576040517f08c379a0000000000000000000000000000000000000000000000000000000008152600401610b5f90614487565b60405180910390fd5b610b70611a5f565b565b336010600083815260200190815260200160002060006101000a81548173ffffffffffffffffffffffffffffffffffffffff021916908373ffffffffffffffffffffffffffffffffffffffff1602179055507f65cee6bd866549e804691903fc8d3e2663672635d78907008015755f26147e618133604051610bf592919061415c565b60405180910390a150565b610c1b838383604051806020016040528060008152506110fa565b505050565b610c31610c2b61155f565b82611620565b610c70576040517f08c379a0000000000000000000000000000000000000000000000000000000008152600401610c6790614467565b60405180910390fd5b610c7981611b01565b50565b6000610c8661091b565b8210610cc7576040517f08c379a0000000000000000000000000000000000000000000000000000000008152600401610cbe90614427565b60405180910390fd5b600a8281548110610d01577f4e487b7100000000000000000000000000000000000000000000000000000000600052603260045260246000fd5b90600052602060002001549050919050565b6000600c60009054906101000a900460ff16905090565b80600f8190555050565b6000806004600084815260200190815260200160002060009054906101000a900473ffffffffffffffffffffffffffffffffffffffff169050600073ffffffffffffffffffffffffffffffffffffffff168173ffffffffffffffffffffffffffffffffffffffff161415610ddd576040517f08c379a0000000000000000000000000000000000000000000000000000000008152600401610dd490614347565b60405180910390fd5b80915050919050565b610e177f9f2df0fed2c77648de5860a4cc508cd0818c85b8b8a1ab4ceeef8d981c8956a6610e1261155f565b610fe1565b610e56576040517f08c379a0000000000000000000000000000000000000000000000000000000008152600401610e4d90614447565b60405180910390fd5b610e6981610e64600d611c12565b611c20565b610e73600d611dee565b50565b6000600f54905090565b60008073ffffffffffffffffffffffffffffffffffffffff168273ffffffffffffffffffffffffffffffffffffffff161415610ef1576040517f08c379a0000000000000000000000000000000000000000000000000000000008152600401610ee890614327565b60405180910390fd5b600560008373ffffffffffffffffffffffffffffffffffffffff1673ffffffffffffffffffffffffffffffffffffffff168152602001908152602001600020549050919050565b610f697f65d7a28e3265b37a6474929f336521b332c1681b933f6cb9f3376673440d862a610f6461155f565b610fe1565b610fa8576040517f08c379a0000000000000000000000000000000000000000000000000000000008152600401610f9f90614267565b60405180910390fd5b610fb0611e04565b565b6000610fd98260016000868152602001908152602001600020611ea790919063ffffffff16565b905092915050565b600080600084815260200190815260200160002060000160008373ffffffffffffffffffffffffffffffffffffffff1673ffffffffffffffffffffffffffffffffffffffff16815260200190815260200160002060009054906101000a900460ff16905092915050565b60606003805461105a90614785565b80601f016020809104026020016040519081016040528092919081815260200182805461108690614785565b80156110d35780601f106110a8576101008083540402835291602001916110d3565b820191906000526020600020905b8154815290600101906020018083116110b657829003601f168201915b5050505050905090565b6000801b81565b6110f66110ef61155f565b8383611ec1565b5050565b61110b61110561155f565b83611620565b61114a576040517f08c379a000000000000000000000000000000000000000000000000000000000815260040161114190614407565b60405180910390fd5b6111568484848461202e565b50505050565b6060611167826114f3565b6111a6576040517f08c379a000000000000000000000000000000000000000000000000000000000815260040161119d906143c7565b60405180910390fd5b60006111b061208a565b905060008151116111d057604051806020016040528060008152506111fb565b806111da8461211c565b6040516020016111eb929190614061565b6040516020818303038152906040525b915050919050565b6000611220600160008481526020019081526020016000206122c9565b9050919050565b7f9f2df0fed2c77648de5860a4cc508cd0818c85b8b8a1ab4ceeef8d981c8956a681565b61125482610988565b6112658161126061155f565b61195a565b61126f8383611a2b565b505050565b60006010600083815260200190815260200160002060009054906101000a900473ffffffffffffffffffffffffffffffffffffffff169050919050565b7f65d7a28e3265b37a6474929f336521b332c1681b933f6cb9f3376673440d862a81565b6000600760008473ffffffffffffffffffffffffffffffffffffffff1673ffffffffffffffffffffffffffffffffffffffff16815260200190815260200160002060008373ffffffffffffffffffffffffffffffffffffffff1673ffffffffffffffffffffffffffffffffffffffff16815260200190815260200160002060009054906101000a900460ff16905092915050565b6113738282610fe1565b61144557600160008084815260200190815260200160002060000160008373ffffffffffffffffffffffffffffffffffffffff1673ffffffffffffffffffffffffffffffffffffffff16815260200190815260200160002060006101000a81548160ff0219169083151502179055506113ea61155f565b73ffffffffffffffffffffffffffffffffffffffff168173ffffffffffffffffffffffffffffffffffffffff16837f2f8788117e7eff1d82e926ec794901d17c78024a50270940304540a733656f0d60405160405180910390a45b5050565b6000611471836000018373ffffffffffffffffffffffffffffffffffffffff1660001b6122de565b905092915050565b60007f780e9d63000000000000000000000000000000000000000000000000000000007bffffffffffffffffffffffffffffffffffffffffffffffffffffffff1916827bffffffffffffffffffffffffffffffffffffffffffffffffffffffff191614806114ec57506114eb8261234e565b5b9050919050565b60008073ffffffffffffffffffffffffffffffffffffffff166004600084815260200190815260200160002060009054906101000a900473ffffffffffffffffffffffffffffffffffffffff1673ffffffffffffffffffffffffffffffffffffffff1614159050919050565b600033905090565b816006600083815260200190815260200160002060006101000a81548173ffffffffffffffffffffffffffffffffffffffff021916908373ffffffffffffffffffffffffffffffffffffffff160217905550808273ffffffffffffffffffffffffffffffffffffffff166115da83610d34565b73ffffffffffffffffffffffffffffffffffffffff167f8c5be1e5ebec7d5bd14f71427d1e84f3dd0314c0f7b2291e5b200ac8c7c3b92560405160405180910390a45050565b600061162b826114f3565b61166a576040517f08c379a0000000000000000000000000000000000000000000000000000000008152600401611661906142c7565b60405180910390fd5b600061167583610d34565b90508073ffffffffffffffffffffffffffffffffffffffff168473ffffffffffffffffffffffffffffffffffffffff1614806116e457508373ffffffffffffffffffffffffffffffffffffffff166116cc8461077e565b73ffffffffffffffffffffffffffffffffffffffff16145b806116f557506116f481856112d5565b5b91505092915050565b8273ffffffffffffffffffffffffffffffffffffffff1661171e82610d34565b73ffffffffffffffffffffffffffffffffffffffff1614611774576040517f08c379a000000000000000000000000000000000000000000000000000000000815260040161176b906143a7565b60405180910390fd5b600073ffffffffffffffffffffffffffffffffffffffff168273ffffffffffffffffffffffffffffffffffffffff1614156117e4576040517f08c379a00000000000000000000000000000000000000000000000000000000081526004016117db90614287565b60405180910390fd5b6117ef838383612430565b6117fa600082611567565b6001600560008573ffffffffffffffffffffffffffffffffffffffff1673ffffffffffffffffffffffffffffffffffffffff168152602001908152602001600020600082825461184a9190614667565b925050819055506001600560008473ffffffffffffffffffffffffffffffffffffffff1673ffffffffffffffffffffffffffffffffffffffff16815260200190815260200160002060008282546118a19190614586565b92505081905550816004600083815260200190815260200160002060006101000a81548173ffffffffffffffffffffffffffffffffffffffff021916908373ffffffffffffffffffffffffffffffffffffffff160217905550808273ffffffffffffffffffffffffffffffffffffffff168473ffffffffffffffffffffffffffffffffffffffff167fddf252ad1be2c89b69c2b068fc378daa952ba7f163c4a11628f55a4df523b3ef60405160405180910390a4505050565b6119648282610fe1565b6119f3576119898173ffffffffffffffffffffffffffffffffffffffff166014612440565b6119978360001c6020612440565b6040516020016119a8929190614085565b6040516020818303038152906040526040517f08c379a00000000000000000000000000000000000000000000000000000000081526004016119ea9190614185565b60405180910390fd5b5050565b611a018282611369565b611a26816001600085815260200190815260200160002061144990919063ffffffff16565b505050565b611a35828261273a565b611a5a816001600085815260200190815260200160002061281b90919063ffffffff16565b505050565b611a67610d13565b611aa6576040517f08c379a0000000000000000000000000000000000000000000000000000000008152600401611a9d906141e7565b60405180910390fd5b6000600c60006101000a81548160ff0219169083151502179055507f5db9ee0a495bf2e6ff9c91a7834c1ba4fdd244a5e8aa4e537bd38aeae4b073aa611aea61155f565b604051611af791906140bf565b60405180910390a1565b6000611b0c82610d34565b9050611b1a81600084612430565b611b25600083611567565b6001600560008373ffffffffffffffffffffffffffffffffffffffff1673ffffffffffffffffffffffffffffffffffffffff1681526020019081526020016000206000828254611b759190614667565b925050819055506004600083815260200190815260200160002060006101000a81549073ffffffffffffffffffffffffffffffffffffffff021916905581600073ffffffffffffffffffffffffffffffffffffffff168273ffffffffffffffffffffffffffffffffffffffff167fddf252ad1be2c89b69c2b068fc378daa952ba7f163c4a11628f55a4df523b3ef60405160405180910390a45050565b600081600001549050919050565b600073ffffffffffffffffffffffffffffffffffffffff168273ffffffffffffffffffffffffffffffffffffffff161415611c90576040517f08c379a0000000000000000000000000000000000000000000000000000000008152600401611c8790614367565b60405180910390fd5b611c99816114f3565b15611cd9576040517f08c379a0000000000000000000000000000000000000000000000000000000008152600401611cd090614247565b60405180910390fd5b611ce560008383612430565b6001600560008473ffffffffffffffffffffffffffffffffffffffff1673ffffffffffffffffffffffffffffffffffffffff1681526020019081526020016000206000828254611d359190614586565b92505081905550816004600083815260200190815260200160002060006101000a81548173ffffffffffffffffffffffffffffffffffffffff021916908373ffffffffffffffffffffffffffffffffffffffff160217905550808273ffffffffffffffffffffffffffffffffffffffff16600073ffffffffffffffffffffffffffffffffffffffff167fddf252ad1be2c89b69c2b068fc378daa952ba7f163c4a11628f55a4df523b3ef60405160405180910390a45050565b6001816000016000828254019250508190555050565b611e0c610d13565b15611e4c576040517f08c379a0000000000000000000000000000000000000000000000000000000008152600401611e43906142e7565b60405180910390fd5b6001600c60006101000a81548160ff0219169083151502179055507f62e78cea01bee320cd4e420270b5ea74000d11b0c9f74754ebdbfc544b05a258611e9061155f565b604051611e9d91906140bf565b60405180910390a1565b6000611eb6836000018361284b565b60001c905092915050565b8173ffffffffffffffffffffffffffffffffffffffff168373ffffffffffffffffffffffffffffffffffffffff161415611f30576040517f08c379a0000000000000000000000000000000000000000000000000000000008152600401611f27906142a7565b60405180910390fd5b80600760008573ffffffffffffffffffffffffffffffffffffffff1673ffffffffffffffffffffffffffffffffffffffff16815260200190815260200160002060008473ffffffffffffffffffffffffffffffffffffffff1673ffffffffffffffffffffffffffffffffffffffff16815260200190815260200160002060006101000a81548160ff0219169083151502179055508173ffffffffffffffffffffffffffffffffffffffff168373ffffffffffffffffffffffffffffffffffffffff167f17307eab39ab6107e8899845ad3d59bd9653f200f220920489ca2b5937696c31836040516120219190614126565b60405180910390a3505050565b6120398484846116fe565b6120458484848461289c565b612084576040517f08c379a000000000000000000000000000000000000000000000000000000000815260040161207b90614227565b60405180910390fd5b50505050565b6060600e805461209990614785565b80601f01602080910402602001604051908101604052809291908181526020018280546120c590614785565b80156121125780601f106120e757610100808354040283529160200191612112565b820191906000526020600020905b8154815290600101906020018083116120f557829003601f168201915b5050505050905090565b60606000821415612164576040518060400160405280600181526020017f300000000000000000000000000000000000000000000000000000000000000081525090506122c4565b600082905060005b6000821461219657808061217f906147b7565b915050600a8261218f91906145dc565b915061216c565b60008167ffffffffffffffff8111156121d8577f4e487b7100000000000000000000000000000000000000000000000000000000600052604160045260246000fd5b6040519080825280601f01601f19166020018201604052801561220a5781602001600182028036833780820191505090505b5090505b600085146122bd576001826122239190614667565b9150600a856122329190614800565b603061223e9190614586565b60f81b81838151811061227a577f4e487b7100000000000000000000000000000000000000000000000000000000600052603260045260246000fd5b60200101907effffffffffffffffffffffffffffffffffffffffffffffffffffffffffffff1916908160001a905350600a856122b691906145dc565b945061220e565b8093505050505b919050565b60006122d782600001612a33565b9050919050565b60006122ea8383612a44565b612343578260000182908060018154018082558091505060019003906000526020600020016000909190919091505582600001805490508360010160008481526020019081526020016000208190555060019050612348565b600090505b92915050565b60007f80ac58cd000000000000000000000000000000000000000000000000000000007bffffffffffffffffffffffffffffffffffffffffffffffffffffffff1916827bffffffffffffffffffffffffffffffffffffffffffffffffffffffff1916148061241957507f5b5e139f000000000000000000000000000000000000000000000000000000007bffffffffffffffffffffffffffffffffffffffffffffffffffffffff1916827bffffffffffffffffffffffffffffffffffffffffffffffffffffffff1916145b80612429575061242882612a67565b5b9050919050565b61243b838383612ae1565b505050565b606060006002836002612453919061460d565b61245d9190614586565b67ffffffffffffffff81111561249c577f4e487b7100000000000000000000000000000000000000000000000000000000600052604160045260246000fd5b6040519080825280601f01601f1916602001820160405280156124ce5781602001600182028036833780820191505090505b5090507f30000000000000000000000000000000000000000000000000000000000000008160008151811061252c577f4e487b7100000000000000000000000000000000000000000000000000000000600052603260045260246000fd5b60200101907effffffffffffffffffffffffffffffffffffffffffffffffffffffffffffff1916908160001a9053507f7800000000000000000000000000000000000000000000000000000000000000816001815181106125b6577f4e487b7100000000000000000000000000000000000000000000000000000000600052603260045260246000fd5b60200101907effffffffffffffffffffffffffffffffffffffffffffffffffffffffffffff1916908160001a905350600060018460026125f6919061460d565b6126009190614586565b90505b60018111156126ec577f3031323334353637383961626364656600000000000000000000000000000000600f861660108110612668577f4e487b7100000000000000000000000000000000000000000000000000000000600052603260045260246000fd5b1a60f81b8282815181106126a5577f4e487b7100000000000000000000000000000000000000000000000000000000600052603260045260246000fd5b60200101907effffffffffffffffffffffffffffffffffffffffffffffffffffffffffffff1916908160001a905350600485901c9450806126e59061475b565b9050612603565b5060008414612730576040517f08c379a0000000000000000000000000000000000000000000000000000000008152600401612727906141a7565b60405180910390fd5b8091505092915050565b6127448282610fe1565b1561281757600080600084815260200190815260200160002060000160008373ffffffffffffffffffffffffffffffffffffffff1673ffffffffffffffffffffffffffffffffffffffff16815260200190815260200160002060006101000a81548160ff0219169083151502179055506127bc61155f565b73ffffffffffffffffffffffffffffffffffffffff168173ffffffffffffffffffffffffffffffffffffffff16837ff6391f5c32d9c69d2a47ea670b442974b53935d1edc7fd64eb21e047a839171b60405160405180910390a45b5050565b6000612843836000018373ffffffffffffffffffffffffffffffffffffffff1660001b612b39565b905092915050565b6000826000018281548110612889577f4e487b7100000000000000000000000000000000000000000000000000000000600052603260045260246000fd5b9060005260206000200154905092915050565b60006128bd8473ffffffffffffffffffffffffffffffffffffffff16612cbf565b15612a26578373ffffffffffffffffffffffffffffffffffffffff1663150b7a026128e661155f565b8786866040518563ffffffff1660e01b815260040161290894939291906140da565b602060405180830381600087803b15801561292257600080fd5b505af192505050801561295357506040513d601f19601f82011682018060405250810190612950919061359e565b60015b6129d6573d8060008114612983576040519150601f19603f3d011682016040523d82523d6000602084013e612988565b606091505b506000815114156129ce576040517f08c379a00000000000000000000000000000000000000000000000000000000081526004016129c590614227565b60405180910390fd5b805181602001fd5b63150b7a0260e01b7bffffffffffffffffffffffffffffffffffffffffffffffffffffffff1916817bffffffffffffffffffffffffffffffffffffffffffffffffffffffff191614915050612a2b565b600190505b949350505050565b600081600001805490509050919050565b600080836001016000848152602001908152602001600020541415905092915050565b60007f5a05180f000000000000000000000000000000000000000000000000000000007bffffffffffffffffffffffffffffffffffffffffffffffffffffffff1916827bffffffffffffffffffffffffffffffffffffffffffffffffffffffff19161480612ada5750612ad982612cd2565b5b9050919050565b612aec838383612d4c565b612af4610d13565b15612b34576040517f08c379a0000000000000000000000000000000000000000000000000000000008152600401612b2b906141c7565b60405180910390fd5b505050565b60008083600101600084815260200190815260200160002054905060008114612cb3576000600182612b6b9190614667565b9050600060018660000180549050612b839190614667565b9050818114612c3e576000866000018281548110612bca577f4e487b7100000000000000000000000000000000000000000000000000000000600052603260045260246000fd5b9060005260206000200154905080876000018481548110612c14577f4e487b7100000000000000000000000000000000000000000000000000000000600052603260045260246000fd5b90600052602060002001819055508387600101600083815260200190815260200160002081905550505b85600001805480612c78577f4e487b7100000000000000000000000000000000000000000000000000000000600052603160045260246000fd5b600190038181906000526020600020016000905590558560010160008681526020019081526020016000206000905560019350505050612cb9565b60009150505b92915050565b600080823b905060008111915050919050565b60007f7965db0b000000000000000000000000000000000000000000000000000000007bffffffffffffffffffffffffffffffffffffffffffffffffffffffff1916827bffffffffffffffffffffffffffffffffffffffffffffffffffffffff19161480612d455750612d4482612e60565b5b9050919050565b612d57838383612eca565b600073ffffffffffffffffffffffffffffffffffffffff168373ffffffffffffffffffffffffffffffffffffffff161415612d9a57612d9581612ecf565b612dd9565b8173ffffffffffffffffffffffffffffffffffffffff168373ffffffffffffffffffffffffffffffffffffffff1614612dd857612dd78382612f18565b5b5b600073ffffffffffffffffffffffffffffffffffffffff168273ffffffffffffffffffffffffffffffffffffffff161415612e1c57612e1781613085565b612e5b565b8273ffffffffffffffffffffffffffffffffffffffff168273ffffffffffffffffffffffffffffffffffffffff1614612e5a57612e5982826131c8565b5b5b505050565b60007f01ffc9a7000000000000000000000000000000000000000000000000000000007bffffffffffffffffffffffffffffffffffffffffffffffffffffffff1916827bffffffffffffffffffffffffffffffffffffffffffffffffffffffff1916149050919050565b505050565b600a80549050600b600083815260200190815260200160002081905550600a81908060018154018082558091505060019003906000526020600020016000909190919091505550565b60006001612f2584610e80565b612f2f9190614667565b9050600060096000848152602001908152602001600020549050818114613014576000600860008673ffffffffffffffffffffffffffffffffffffffff1673ffffffffffffffffffffffffffffffffffffffff168152602001908152602001600020600084815260200190815260200160002054905080600860008773ffffffffffffffffffffffffffffffffffffffff1673ffffffffffffffffffffffffffffffffffffffff168152602001908152602001600020600084815260200190815260200160002081905550816009600083815260200190815260200160002081905550505b6009600084815260200190815260200160002060009055600860008573ffffffffffffffffffffffffffffffffffffffff1673ffffffffffffffffffffffffffffffffffffffff16815260200190815260200160002060008381526020019081526020016000206000905550505050565b60006001600a805490506130999190614667565b90506000600b60008481526020019081526020016000205490506000600a83815481106130ef577f4e487b7100000000000000000000000000000000000000000000000000000000600052603260045260246000fd5b9060005260206000200154905080600a8381548110613137577f4e487b7100000000000000000000000000000000000000000000000000000000600052603260045260246000fd5b906000526020600020018190555081600b600083815260200190815260200160002081905550600b600085815260200190815260200160002060009055600a8054806131ac577f4e487b7100000000000000000000000000000000000000000000000000000000600052603160045260246000fd5b6001900381819060005260206000200160009055905550505050565b60006131d383610e80565b905081600860008573ffffffffffffffffffffffffffffffffffffffff1673ffffffffffffffffffffffffffffffffffffffff168152602001908152602001600020600083815260200190815260200160002081905550806009600084815260200190815260200160002081905550505050565b600061325a61325584614513565b6144e2565b90508281526020810184848401111561327257600080fd5b61327d848285614719565b509392505050565b600081359050613294816148fe565b92915050565b6000813590506132a981614915565b92915050565b6000813590506132be8161492c565b92915050565b6000813590506132d381614943565b92915050565b6000815190506132e881614943565b92915050565b600082601f8301126132ff57600080fd5b813561330f848260208601613247565b91505092915050565b6000813590506133278161495a565b92915050565b60006020828403121561333f57600080fd5b600061334d84828501613285565b91505092915050565b6000806040838503121561336957600080fd5b600061337785828601613285565b925050602061338885828601613285565b9150509250929050565b6000806000606084860312156133a757600080fd5b60006133b586828701613285565b93505060206133c686828701613285565b92505060406133d786828701613318565b9150509250925092565b600080600080608085870312156133f757600080fd5b600061340587828801613285565b945050602061341687828801613285565b935050604061342787828801613318565b925050606085013567ffffffffffffffff81111561344457600080fd5b613450878288016132ee565b91505092959194509250565b6000806040838503121561346f57600080fd5b600061347d85828601613285565b925050602061348e8582860161329a565b9150509250929050565b600080604083850312156134ab57600080fd5b60006134b985828601613285565b92505060206134ca85828601613318565b9150509250929050565b6000602082840312156134e657600080fd5b60006134f4848285016132af565b91505092915050565b6000806040838503121561351057600080fd5b600061351e858286016132af565b925050602061352f85828601613285565b9150509250929050565b6000806040838503121561354c57600080fd5b600061355a858286016132af565b925050602061356b85828601613318565b9150509250929050565b60006020828403121561358757600080fd5b6000613595848285016132c4565b91505092915050565b6000602082840312156135b057600080fd5b60006135be848285016132d9565b91505092915050565b6000602082840312156135d957600080fd5b60006135e784828501613318565b91505092915050565b6135f98161469b565b82525050565b613608816146ad565b82525050565b613617816146b9565b82525050565b600061362882614543565b6136328185614559565b9350613642818560208601614728565b61364b816148ed565b840191505092915050565b60006136618261454e565b61366b818561456a565b935061367b818560208601614728565b613684816148ed565b840191505092915050565b600061369a8261454e565b6136a4818561457b565b93506136b4818560208601614728565b80840191505092915050565b60006136cd60208361456a565b91507f537472696e67733a20686578206c656e67746820696e73756666696369656e746000830152602082019050919050565b600061370d602b8361456a565b91507f4552433732315061757361626c653a20746f6b656e207472616e73666572207760008301527f68696c65207061757365640000000000000000000000000000000000000000006020830152604082019050919050565b600061377360148361456a565b91507f5061757361626c653a206e6f74207061757365640000000000000000000000006000830152602082019050919050565b60006137b3602b8361456a565b91507f455243373231456e756d657261626c653a206f776e657220696e646578206f7560008301527f74206f6620626f756e64730000000000000000000000000000000000000000006020830152604082019050919050565b600061381960328361456a565b91507f4552433732313a207472616e7366657220746f206e6f6e20455243373231526560008301527f63656976657220696d706c656d656e74657200000000000000000000000000006020830152604082019050919050565b600061387f601c8361456a565b91507f4552433732313a20746f6b656e20616c7265616479206d696e746564000000006000830152602082019050919050565b60006138bf603e8361456a565b91507f4552433732315072657365744d696e7465725061757365724175746f49643a2060008301527f6d75737420686176652070617573657220726f6c6520746f20706175736500006020830152604082019050919050565b600061392560248361456a565b91507f4552433732313a207472616e7366657220746f20746865207a65726f2061646460008301527f72657373000000000000000000000000000000000000000000000000000000006020830152604082019050919050565b600061398b60198361456a565b91507f4552433732313a20617070726f766520746f2063616c6c6572000000000000006000830152602082019050919050565b60006139cb602c8361456a565b91507f4552433732313a206f70657261746f7220717565727920666f72206e6f6e657860008301527f697374656e7420746f6b656e00000000000000000000000000000000000000006020830152604082019050919050565b6000613a3160108361456a565b91507f5061757361626c653a20706175736564000000000000000000000000000000006000830152602082019050919050565b6000613a7160388361456a565b91507f4552433732313a20617070726f76652063616c6c6572206973206e6f74206f7760008301527f6e6572206e6f7220617070726f76656420666f7220616c6c00000000000000006020830152604082019050919050565b6000613ad7602a8361456a565b91507f4552433732313a2062616c616e636520717565727920666f7220746865207a6560008301527f726f2061646472657373000000000000000000000000000000000000000000006020830152604082019050919050565b6000613b3d60298361456a565b91507f4552433732313a206f776e657220717565727920666f72206e6f6e657869737460008301527f656e7420746f6b656e00000000000000000000000000000000000000000000006020830152604082019050919050565b6000613ba360208361456a565b91507f4552433732313a206d696e7420746f20746865207a65726f20616464726573736000830152602082019050919050565b6000613be3602c8361456a565b91507f4552433732313a20617070726f76656420717565727920666f72206e6f6e657860008301527f697374656e7420746f6b656e00000000000000000000000000000000000000006020830152604082019050919050565b6000613c4960298361456a565b91507f4552433732313a207472616e73666572206f6620746f6b656e2074686174206960008301527f73206e6f74206f776e00000000000000000000000000000000000000000000006020830152604082019050919050565b6000613caf602f8361456a565b91507f4552433732314d657461646174613a2055524920717565727920666f72206e6f60008301527f6e6578697374656e7420746f6b656e00000000000000000000000000000000006020830152604082019050919050565b6000613d1560218361456a565b91507f4552433732313a20617070726f76616c20746f2063757272656e74206f776e6560008301527f72000000000000000000000000000000000000000000000000000000000000006020830152604082019050919050565b6000613d7b60318361456a565b91507f4552433732313a207472616e736665722063616c6c6572206973206e6f74206f60008301527f776e6572206e6f7220617070726f7665640000000000000000000000000000006020830152604082019050919050565b6000613de1602c8361456a565b91507f455243373231456e756d657261626c653a20676c6f62616c20696e646578206f60008301527f7574206f6620626f756e647300000000000000000000000000000000000000006020830152604082019050919050565b6000613e4760178361457b565b91507f416363657373436f6e74726f6c3a206163636f756e74200000000000000000006000830152601782019050919050565b6000613e87603d8361456a565b91507f4552433732315072657365744d696e7465725061757365724175746f49643a2060008301527f6d7573742068617665206d696e74657220726f6c6520746f206d696e740000006020830152604082019050919050565b6000613eed60308361456a565b91507f4552433732314275726e61626c653a2063616c6c6572206973206e6f74206f7760008301527f6e6572206e6f7220617070726f766564000000000000000000000000000000006020830152604082019050919050565b6000613f5360408361456a565b91507f4552433732315072657365744d696e7465725061757365724175746f49643a2060008301527f6d75737420686176652070617573657220726f6c6520746f20756e70617573656020830152604082019050919050565b6000613fb960118361457b565b91507f206973206d697373696e6720726f6c65200000000000000000000000000000006000830152601182019050919050565b6000613ff9602f8361456a565b91507f416363657373436f6e74726f6c3a2063616e206f6e6c792072656e6f756e636560008301527f20726f6c657320666f722073656c6600000000000000000000000000000000006020830152604082019050919050565b61405b8161470f565b82525050565b600061406d828561368f565b9150614079828461368f565b91508190509392505050565b600061409082613e3a565b915061409c828561368f565b91506140a782613fac565b91506140b3828461368f565b91508190509392505050565b60006020820190506140d460008301846135f0565b92915050565b60006080820190506140ef60008301876135f0565b6140fc60208301866135f0565b6141096040830185614052565b818103606083015261411b818461361d565b905095945050505050565b600060208201905061413b60008301846135ff565b92915050565b6000602082019050614156600083018461360e565b92915050565b6000604082019050614171600083018561360e565b61417e60208301846135f0565b9392505050565b6000602082019050818103600083015261419f8184613656565b905092915050565b600060208201905081810360008301526141c0816136c0565b9050919050565b600060208201905081810360008301526141e081613700565b9050919050565b6000602082019050818103600083015261420081613766565b9050919050565b60006020820190508181036000830152614220816137a6565b9050919050565b600060208201905081810360008301526142408161380c565b9050919050565b6000602082019050818103600083015261426081613872565b9050919050565b60006020820190508181036000830152614280816138b2565b9050919050565b600060208201905081810360008301526142a081613918565b9050919050565b600060208201905081810360008301526142c08161397e565b9050919050565b600060208201905081810360008301526142e0816139be565b9050919050565b6000602082019050818103600083015261430081613a24565b9050919050565b6000602082019050818103600083015261432081613a64565b9050919050565b6000602082019050818103600083015261434081613aca565b9050919050565b6000602082019050818103600083015261436081613b30565b9050919050565b6000602082019050818103600083015261438081613b96565b9050919050565b600060208201905081810360008301526143a081613bd6565b9050919050565b600060208201905081810360008301526143c081613c3c565b9050919050565b600060208201905081810360008301526143e081613ca2565b9050919050565b6000602082019050818103600083015261440081613d08565b9050919050565b6000602082019050818103600083015261442081613d6e565b9050919050565b6000602082019050818103600083015261444081613dd4565b9050919050565b6000602082019050818103600083015261446081613e7a565b9050919050565b6000602082019050818103600083015261448081613ee0565b9050919050565b600060208201905081810360008301526144a081613f46565b9050919050565b600060208201905081810360008301526144c081613fec565b9050919050565b60006020820190506144dc6000830184614052565b92915050565b6000604051905081810181811067ffffffffffffffff82111715614509576145086148be565b5b8060405250919050565b600067ffffffffffffffff82111561452e5761452d6148be565b5b601f19601f8301169050602081019050919050565b600081519050919050565b600081519050919050565b600082825260208201905092915050565b600082825260208201905092915050565b600081905092915050565b60006145918261470f565b915061459c8361470f565b9250827fffffffffffffffffffffffffffffffffffffffffffffffffffffffffffffffff038211156145d1576145d0614831565b5b828201905092915050565b60006145e78261470f565b91506145f28361470f565b92508261460257614601614860565b5b828204905092915050565b60006146188261470f565b91506146238361470f565b9250817fffffffffffffffffffffffffffffffffffffffffffffffffffffffffffffffff048311821515161561465c5761465b614831565b5b828202905092915050565b60006146728261470f565b915061467d8361470f565b9250828210156146905761468f614831565b5b828203905092915050565b60006146a6826146ef565b9050919050565b60008115159050919050565b6000819050919050565b60007fffffffff0000000000000000000000000000000000000000000000000000000082169050919050565b600073ffffffffffffffffffffffffffffffffffffffff82169050919050565b6000819050919050565b82818337600083830152505050565b60005b8381101561474657808201518184015260208101905061472b565b83811115614755576000848401525b50505050565b60006147668261470f565b9150600082141561477a57614779614831565b5b600182039050919050565b6000600282049050600182168061479d57607f821691505b602082108114156147b1576147b061488f565b5b50919050565b60006147c28261470f565b91507fffffffffffffffffffffffffffffffffffffffffffffffffffffffffffffffff8214156147f5576147f4614831565b5b600182019050919050565b600061480b8261470f565b91506148168361470f565b92508261482657614825614860565b5b828206905092915050565b7f4e487b7100000000000000000000000000000000000000000000000000000000600052601160045260246000fd5b7f4e487b7100000000000000000000000000000000000000000000000000000000600052601260045260246000fd5b7f4e487b7100000000000000000000000000000000000000000000000000000000600052602260045260246000fd5b7f4e487b7100000000000000000000000000000000000000000000000000000000600052604160045260246000fd5b6000601f19601f8301169050919050565b6149078161469b565b811461491257600080fd5b50565b61491e816146ad565b811461492957600080fd5b50565b614935816146b9565b811461494057600080fd5b50565b61494c816146c3565b811461495757600080fd5b50565b6149638161470f565b811461496e57600080fd5b5056fea26469706673582212204e4bcc26218474f50befa99893345a830bbc9df96af18668ca40af5a2f3f1ab464736f6c6343000800003368747470733a2f2f7261772e67697468756275736572636f6e74656e742e636f6d2f6369726974692f746573742f6d61696e2f6d65746164617461",
  "immutableReferences": {},
  "source": "// SPDX-License-Identifier: MIT\npragma solidity ^0.8.0;\n\nimport \"@openzeppelin/contracts/token/ERC721/presets/ERC721PresetMinterPauserAutoId.sol\";\nimport \"@openzeppelin/contracts/utils/Counters.sol\";\n\ncontract SimpleStorage is ERC721PresetMinterPauserAutoId  {\n\n  uint ipfsHash;\n\n  mapping(bytes32 => address) nftOwner;\n\n  event TokenIPFSHash(bytes32 ifpsHash, address ownerAddress);\n\n  constructor() ERC721PresetMinterPauserAutoId(\"Ciriti\", \"CRT-1\", \"https://raw.githubusercontent.com/ciriti/test/main/metadata\") {\n  }\n\n  function set(uint x) public {\n    ipfsHash = x;\n  }\n\n  function get() public view returns (uint) {\n    return ipfsHash;\n  }\n\n  function getOwner(bytes32 ifpsHash) public view returns (address) {\n    return nftOwner[ifpsHash];\n  }\n\n  function save(bytes32 ifpsHash) public{\n    nftOwner[ifpsHash] = msg.sender;\n    emit TokenIPFSHash(ifpsHash, msg.sender);\n  }\n\n  // function mint(address to, uint lockedFromTimestamp, bytes32 unlockHash) public {\n  //       tokenLockedFromTimestamp[_tokenIds.current()] = lockedFromTimestamp;\n  //       tokenUnlockCodeHashes[_tokenIds.current()] = unlockHash;\n  //       _tokenIds.increment();\n  //       super.mint(to);\n  //   }\n}\n",
  "sourcePath": "/Users/sourcepoint/Development/cool_projects/crypto-prjs/ipfs_image_uploader_updated/contracts/SimpleStorage.sol",
  "compiler": {
    "name": "solc",
    "version": "0.8.0+commit.c7dfd78e.Emscripten.clang"
  },
  "schemaVersion": "3.4.4",
  "updatedAt": "2022-02-02T12:51:57.200Z",
  "networkType": "ethereum",
  "devdoc": {
    "kind": "dev",
    "methods": {
      "approve(address,uint256)": {
        "details": "See {IERC721-approve}."
      },
      "balanceOf(address)": {
        "details": "See {IERC721-balanceOf}."
      },
      "burn(uint256)": {
        "details": "Burns `tokenId`. See {ERC721-_burn}. Requirements: - The caller must own `tokenId` or be an approved operator."
      },
      "getApproved(uint256)": {
        "details": "See {IERC721-getApproved}."
      },
      "getRoleAdmin(bytes32)": {
        "details": "Returns the admin role that controls `role`. See {grantRole} and {revokeRole}. To change a role's admin, use {_setRoleAdmin}."
      },
      "getRoleMember(bytes32,uint256)": {
        "details": "Returns one of the accounts that have `role`. `index` must be a value between 0 and {getRoleMemberCount}, non-inclusive. Role bearers are not sorted in any particular way, and their ordering may change at any point. WARNING: When using {getRoleMember} and {getRoleMemberCount}, make sure you perform all queries on the same block. See the following https://forum.openzeppelin.com/t/iterating-over-elements-on-enumerableset-in-openzeppelin-contracts/2296[forum post] for more information."
      },
      "getRoleMemberCount(bytes32)": {
        "details": "Returns the number of accounts that have `role`. Can be used together with {getRoleMember} to enumerate all bearers of a role."
      },
      "grantRole(bytes32,address)": {
        "details": "Grants `role` to `account`. If `account` had not been already granted `role`, emits a {RoleGranted} event. Requirements: - the caller must have ``role``'s admin role."
      },
      "hasRole(bytes32,address)": {
        "details": "Returns `true` if `account` has been granted `role`."
      },
      "isApprovedForAll(address,address)": {
        "details": "See {IERC721-isApprovedForAll}."
      },
      "mint(address)": {
        "details": "Creates a new token for `to`. Its token ID will be automatically assigned (and available on the emitted {IERC721-Transfer} event), and the token URI autogenerated based on the base URI passed at construction. See {ERC721-_mint}. Requirements: - the caller must have the `MINTER_ROLE`."
      },
      "name()": {
        "details": "See {IERC721Metadata-name}."
      },
      "ownerOf(uint256)": {
        "details": "See {IERC721-ownerOf}."
      },
      "pause()": {
        "details": "Pauses all token transfers. See {ERC721Pausable} and {Pausable-_pause}. Requirements: - the caller must have the `PAUSER_ROLE`."
      },
      "paused()": {
        "details": "Returns true if the contract is paused, and false otherwise."
      },
      "renounceRole(bytes32,address)": {
        "details": "Revokes `role` from the calling account. Roles are often managed via {grantRole} and {revokeRole}: this function's purpose is to provide a mechanism for accounts to lose their privileges if they are compromised (such as when a trusted device is misplaced). If the calling account had been revoked `role`, emits a {RoleRevoked} event. Requirements: - the caller must be `account`."
      },
      "revokeRole(bytes32,address)": {
        "details": "Revokes `role` from `account`. If `account` had been granted `role`, emits a {RoleRevoked} event. Requirements: - the caller must have ``role``'s admin role."
      },
      "safeTransferFrom(address,address,uint256)": {
        "details": "See {IERC721-safeTransferFrom}."
      },
      "safeTransferFrom(address,address,uint256,bytes)": {
        "details": "See {IERC721-safeTransferFrom}."
      },
      "setApprovalForAll(address,bool)": {
        "details": "See {IERC721-setApprovalForAll}."
      },
      "supportsInterface(bytes4)": {
        "details": "See {IERC165-supportsInterface}."
      },
      "symbol()": {
        "details": "See {IERC721Metadata-symbol}."
      },
      "tokenByIndex(uint256)": {
        "details": "See {IERC721Enumerable-tokenByIndex}."
      },
      "tokenOfOwnerByIndex(address,uint256)": {
        "details": "See {IERC721Enumerable-tokenOfOwnerByIndex}."
      },
      "tokenURI(uint256)": {
        "details": "See {IERC721Metadata-tokenURI}."
      },
      "totalSupply()": {
        "details": "See {IERC721Enumerable-totalSupply}."
      },
      "transferFrom(address,address,uint256)": {
        "details": "See {IERC721-transferFrom}."
      },
      "unpause()": {
        "details": "Unpauses all token transfers. See {ERC721Pausable} and {Pausable-_unpause}. Requirements: - the caller must have the `PAUSER_ROLE`."
      }
    },
    "version": 1
  },
  "userdoc": {
    "kind": "user",
    "methods": {},
    "version": 1
  }
}